:020000040800F2
:10000000380A002071020008472B0008EB21000885
:10001000452B000831060008C93000080000000028
:10002000000000000000000000000000B92C0008E3
:100030007108000800000000492B0008BB2C0008D4
:100040008B0200088B0200088B0200088B0200085C
:100050008B0200088B0200088B0200088B0200084C
:10006000730800088B0200088B0200088B0200084E
:100070008B0200088B0200088B0200088B0200082C
:100080008B0200088B0200088B02000800000000B1
:100090000000000000000000000000008B020008CB
:1000A0008B0200088B0200088B0200088B020008FC
:1000B0008B0200088B0200088B0200088B020008EC
:1000C0008B0200088B0200088B0200088B020008DC
:1000D0008B0200088B0200088B0200080000000061
:1000E0008B0200088B0200088B0200080000000051
:1000F0000000000000000000000000008B0200086B
:10010000000000008B0200088B0200088B02000830
:1001100000000000000000000000000000000000DF
:10012000B50700088B020008C10700088B02000811
:100130008B0200080000000000000000000000002A
:100140000000000000000000000000008B0200081A
:100150008B0200088B0200088B0200088B0200084B
:100160008B0200088B020008000000000000000065
:10017000000000000000000000000000000000007F
:10018000000000008B0200080000000000000000DA
:100190008B0200088B02000800F002F800F03EF825
:1001A0000AA090E8000C82448344AAF10107DA45D2
:1001B00001D100F033F8AFF2090EBAE80F0013F0E6
:1001C000010F18BFFB1A43F0010318478C330000DE
:1001D000AC330000103A24BF78C878C1FAD852076F
:1001E00024BF30C830C144BF04680C6070470000B1
:1001F0000023002400250026103A28BF78C1FBD830
:10020000520728BF30C148BF0B6070471FB503F0CD
:100210008DF900F0DAF81FBD10B510BD00F03AF905
:100220001146FFF7F3FF03F021F800F058F903B48B
:10023000FFF7F2FF03BC00F05FF900000B49D1F8B3
:1002400000C04A685CF8043B1068184442F8040B8C
:100250008C4528BFA1F1DC0C8A4228BFA1F1DC0249
:10026000C1F800C04A6020F000407047D003002071
:100270000948804709480047FEE7FEE7FEE7FEE73A
:10028000FEE7FEE7FEE7FEE7FEE7FEE70448054976
:10029000054A064B70470000512D000899010008DF
:1002A00038040020380A00203806002038060020D4
:1002B00053EA020C00F069802DE9F04B4FF0000684
:1002C000002B1FBFB3FA83F503FA05F424FA05F6F1
:1002D0005E4012BF1643B2FA82F502FA05F4C5F188
:1002E00020051EBF22FA05FC44EA0C04203556EA1C
:1002F000044C4FEA144418BF641C4FF000084FF040
:100300000009904271EB030C39D3002919BFB1FAEF
:1003100081F701FA07F6B0FA80F700FA07F6C7F19D
:1003200020071EBF20FA07FC46EA0C062037B6FB62
:10033000F4FCA7EB0507103F07F01F0BCBF12006DD
:100340000CFA0BFB2CFA06F644BFB3460026202F0E
:10035000A4BF5E464FF0000B5BEA060C08BF4FF0EF
:10036000010B19EB0B09ABFB027C48EB0608C01B29
:1003700006FB02CC0BFB03CC71EB0C01C1E70B4677
:10038000024641464846BDE8F08B13B54FF00000E9
:100390004FF00001AFF30080BDE81C407047000043
:1003A0000B4910B5A1F17C020A4CC2E93712372182
:1003B00006E000EB104342F82130074B00FB0340FE
:1003C0000B1EA1F10101F4DC10BD0120E8E70000E3
:1003D00070030020E119D666CD0D010010B5203A5A
:1003E000C0F00B80B1E81850203AA0E81850B1E8EE
:1003F0001850A0E81850BFF4F5AF5FEA027C24BFA4
:10040000B1E81850A0E8185044BF18C918C0BDE89A
:1004100010405FEA827C24BF51F8043B40F8043B63
:1004200008BF7047D20728BF31F8023B48BF11F818
:10043000012B28BF20F8023B48BF00F8012B704772
:100440004FF0000200B5134694469646203922BF6D
:10045000A0E80C50A0E80C50B1F12001BFF4F7AFB8
:10046000090728BFA0E80C5048BF0CC05DF804EB9A
:10047000890028BF40F8042B08BF704748BF20F808
:10048000022B11F0804F18BF00F8012B7047704706
:1004900070477047754600F02BF8AE460500694678
:1004A000534620F00700854618B020B5FFF7EEFE52
:1004B000BDE820404FF000064FF000074FF0000865
:1004C0004FF0000B21F00701AC46ACE8C009ACE8E6
:1004D000C009ACE8C009ACE8C0098D46704710B54A
:1004E0000446AFF300802046BDE81040FFF79FBEF2
:1004F00000487047D803002001491820ABBEFEE732
:100500002600020070470000464910B54A6822F4F0
:1005100040324A604A6843681A434A6001684A6840
:1005200022F480724A6001684A68036942EA032241
:100530004A6001684A6822F040724A6001684A686D
:1005400083681A434A6001688A6822F400628A60FC
:1005500001688A68C3681A438A60816A6FF07062B2
:10056000D14201688A6822F070628A6001688A68F4
:100570000CD0836A1A438A6001688A6822F040526C
:100580008A6001688A68C36A1A4301E022F0405217
:100590008A6001688A6822F002028A6001688A68BB
:1005A000037E42EA43028A6090F820100029016825
:1005B0004A680FD042F400624A6001684A6822F437
:1005C00060424A6001684A68174C436A04EB43334F
:1005D0001A4301E022F400624A600168CA6A22F408
:1005E0007002CA620168CA6A838B104C04EB035321
:1005F0001A43CA6201688A6822F400728A6001683C
:100600008A6890F8303042EA43228A6001688A683A
:1006100022F480628A6001688A68406942EA802028
:10062000886010BD0023014000E0FFFF0000F0FFE4
:10063000FEE710B50022012100F087F8BDE8104068
:10064000052000F0B5BB10B5044602982160227168
:100650006371A0712820A0720620E0710C20207226
:10066000142060720820E072322000F0A1FB00220A
:100670003321204600F069F800223321204600F0A3
:1006800064F8052000F094FB00223221204600F09F
:100690005CF8052000F08CFB00222021204600F0B1
:1006A00054F8052000F084FBE1790022204600F098
:1006B0004CF8217A0022204600F047F8617A0022A7
:1006C000204600F042F8A17A0022204600F03DF8D2
:1006D00000220121204600F038F820460022BDE823
:1006E0001040022100F031B830B4447900238C422C
:1006F00001D8641EE1B28479944201D8641EE2B24A
:1007000032B1012A06D0022A06D0032A06D007E019
:100710000B4605E0403102E0143100E05431CBB229
:1007200030BC43F08001002200F00FB8012200F03D
:100730000CB870B50C46054603E02846641CFFF76C
:10074000F5FF21780029F8D170BD7CB50646080771
:10075000040EF07A01F0F00518B145F0080544F0F8
:100760000804012A01D02AB108E045F0010544F04F
:10077000010403E025F0010524F0010445F0040024
:100780008DF80400012000F013FB8DF8055044F0B3
:1007900004008DF80600012000F00AFB4FF47A7087
:1007A0008DF8074000903179042301AA306800F0E9
:1007B00001FD7CBD014800F089B900004401002022
:1007C000014800F083B9000094020020016818235A
:1007D000CAB2103AB2FBF3F2054B6FF30901032AD8
:1007E0009B5CC36500D9091D816508467047000000
:1007F0003635000810B5014600208B698A6A4FF033
:10080000C07453B1B3F5005F15D072B1012A0CD09A
:10081000022A0AD0032A09D104E01AB1012A06D01B
:10082000022A03D1C96AC90100D5012010BDC96AD5
:10083000A142FAD010BD002AF7D0012AF2D0022A34
:10084000F3D0032AF3D010BD30B50468256825F431
:1008500080252560046863608368402B036803D0AB
:1008600099600068C26030BD9A600068C16030BDA8
:100870007047042000F0CABA72B6FEE778B50024CB
:10088000009490F83C20012A19D0012280F83C20E5
:100890000A6807230568092A13D9EE680A3A02EBA9
:1008A000420293409E43EE600B788A680A3B03EB5A
:1008B00043039A400368DD682A43DA6010E00220AF
:1008C00078BD2E6902EB420293409E432E610B7865
:1008D0008A6803EB43039A4003681D692A431A613F
:1008E0004A681F23072A13D205686E6B521E02EB5B
:1008F000820293409E436E630A8893B20A79521E25
:1009000002EB820293400268556B2B43536327E04E
:1009100005680D2A12D22E6BD21F02EB8202934081
:100920009E432E630B790A88DB1F92B203EB83038D
:100930009A4003681D6B2A431A6311E0EE6A0D3A70
:1009400002EB820293409E43EE620B790A880D3BD4
:1009500092B203EB83039A400368DD6A2A43DA62AA
:100960001B4B0568194A9D420AD10D68122D07D10B
:10097000556825F400055560556845F480055560B7
:1009800005689D421DD1134D0B68AB4201D0112B60
:1009900017D1536823F480035360536843F4000372
:1009A00053600968A9420CD10B490C4A0968B1FB94
:1009B000F2F101EB8101490000E0491E009100299C
:1009C000FBD180F83C40002078BD000000230140AE
:1009D00000200140120000103400002040420F00AF
:1009E00070B504004FF0000503D0206C002610B154
:1009F00007E0012070BD204600F01CF8666484F812
:100A00003C60206CC00610D4206C20F4885040F06C
:100A1000020020642046FFF777FD6664206C20F01A
:100A2000020040F00100206400E0012584F83C60F1
:100A3000284670BD70B586B0064614216846FFF79B
:100A4000FFFC1D493068884234D11C4800250168EC
:100A500041F480710160006800F4807005901748CF
:100A60001438016841F0010101600068694600F036
:100A7000010005901E2000900320CDE901051048DB
:100A800000F0D0F9104C0F48C4E900050015A5602E
:100A9000C4E90350400060618000A0614011C4E9D6
:100AA00007052046656200F0E1F808B1FFF7E4FEB3
:100AB000B463A66306B070BD002001404438024014
:100AC0000000024010640240440100202DE9F84378
:100AD00004464FF00009CDF8009063484FF41651DA
:100AE000A56D0068B0FBF1F72E6894F85C10082043
:100AF00000FA01F131420FD021680A6852070BD584
:100B00000A6822F004020A6094F85C108840A86029
:100B1000606D40F00100606594F85C104FF00108D2
:100B200008FA01F0304208D021684969090604D565
:100B3000A860606D40F00200606594F85C100420CD
:100B40008840304208D021680968890704D5A86028
:100B5000606D40F00400606594F85C1010208840DF
:100B6000304218D021680968090714D5A8602068A8
:100B70000168490304D50068000308D5A16C07E0AB
:100B80000168C90503D4016821F008010160216CE6
:100B900009B12046884794F85C10202088403042F4
:100BA00031D021680968C9062DD5A86094F83500B0
:100BB00005282068016806D0490347D5006800036E
:100BC0001DD4616C1CE021F01601016020684169B0
:100BD00021F080014161206C08B9A06C20B120682F
:100BE000016821F00801016094F85C103F20884002
:100BF000A86084F8358084F83490216D1FE0E16BA3
:100C000009B120468847606D00282BD0606DC00771
:100C100014D0052084F835002068016821F0010116
:100C200001600098401C0090B84203D8206800681A
:100C3000C007F6D184F8358084F83490E16C00293F
:100C400010D001B02046BDE8F04308470168C9054F
:100C5000D5D4016821F01001016084F8358084F852
:100C60003490CCE7BDE8F883340000202DE9F04152
:100C7000044600F0D5F906465CB1022084F8350040
:100C8000002584F834502068016821F001010160DA
:100C90000DE00120BDE8F08100F0C2F9801B0528BD
:100CA00005D920206065032084F83500F2E720682C
:100CB0000068C007F0D12268116820480140D4E9DB
:100CC00001031843D4E903363343184363691843D7
:100CD000A3691843E3691843236A18430843616A08
:100CE000042903D1D4E90B13194308431060206889
:100CF0004069666A20F0070130460E430127042848
:100D00000CD1A06A0643E06A40B12046FFF772FDAD
:100D100020B14020606584F83570BAE720684661EC
:100D20002046FFF753FD94F85C203F2191408160FD
:100D3000656584F835700020ACE700003F8010F056
:100D40002DE9F0410446866D90F834000025012815
:100D50000DD0012084F8340094F835700020012F64
:100D600007D084F8340002252846BDE8F08102202F
:100D7000FBE7022784F8357060652046FFF764FDC5
:100D800094F85C103F208840B0602068016841F012
:100D900016010160206C20B12068016841F0080153
:100DA00001602068016841F001010160DCE700009A
:100DB00070B5044600F034F90546601C02D00448C2
:100DC0000078044400F02CF9401BA042FAD370BD17
:100DD000280000200B4910B5898A814210D10949A9
:100DE00080222C31074801F03AFC06482C3001786B
:100DF000422905D14078302802D1034901204870AA
:100E000010BD00004400002000000020044910B57F
:100E10000A68024202D00860FFF7DCFF10BD000044
:100E2000143C01402DE9F84FDFF8B8A1002201245D
:100E300003254FF00F090AF1040BAAF1040E00BFBD
:100E40000B6804FA02F63340B34273D10F7907F00E
:100E50000307012F01D0022F16D187684FEA4208FD
:100E600005FA08FC27EA0C07D1F80CC00CFA08FCBC
:100E70004CEA070CC0F808C04768B7430E79C6F3C0
:100E8000001696403E4346600E79F643B6070DD0F5
:100E9000C768560005FA06FC27EA0C07D1F808C017
:100EA0000CFA06FC4CEA070CC0F80CC00E7906F0F0
:100EB0000306022E10D1D60800EB8608D8F8206071
:100EC00057074FEAD76C09FA0CF7BE430F6907FAC8
:100ED0000CF73743C8F8207006684FEA420C05FA51
:100EE0000CF7BE430F7907F0030707FA0CF73743F7
:100EF00007604E6816F4403F6DD03B4E376847F4AC
:100F000080473760366822F0030706F48046009673
:100F1000364E07EB060CDCF8086897073F0F09FA16
:100F200007F826EA0806DFF8C880404503D14FF0ED
:100F300000081EE04FE0DFF8BC80404502D14FF0D2
:100F4000010816E0DFF8B080404502D14FF00208FA
:100F50000FE0DFF8A880404502D14FF0030808E019
:100F6000DFF89C80404502D14FF0040801E04FF0CB
:100F7000070808FA07F848EA0608CCF80888DAF8FB
:100F800000605746D1F804C09E435FEACC2C00D5E0
:100F90001E433E60DBF800605F46D1F804C09E430C
:100FA0005FEA8C2C00D51E433E60DEF80060774679
:100FB000D1F804C09E435FEA8C3C00D51E433E60DE
:100FC000084F083F3E68D1F804C09E435FEACC3C1E
:100FD00000D51E433E60521C102AFFF431AFBDE81D
:100FE000F88F0000083C01404438024000300140C6
:100FF000000002400004024000080240000C0240D1
:1010000000100240426921EA02030A4043EA024119
:10101000816170470AB1816170470904FBE70000F4
:1010200001488068704700002800002070B5040067
:1010300025D094F83D00002520B984F83C50204686
:1010400000F04EF9242084F83D002068016821F06A
:10105000010101602068016841F4004101602068DD
:10106000016821F40041016000F0A2FA4D4A616874
:10107000914201D84C4900E04C49884201D20120FC
:1010800070BD4B492368B0FBF1F15E6826F03F0666
:101090000E435E606368934206D94FF496735943DA
:1010A0004FF47A73B1FBF3F12368491C1E6A26F0F2
:1010B0003F06314319626168914210D84900401ED1
:1010C000B0FBF1F2521CC2F30B02042A01D204203D
:1010D00022E0B0FBF1F0401CC0F30B001CE0A26862
:1010E000F2B301EBC10303EB0116431EB3FBF6F3AE
:1010F0005B1C43F480431B0549D092B301EBC10252
:1011000002EB0111401EB0FBF1F0401CC0F30B00DC
:1011100040F4804040F400402168CA694CF6FF73F7
:101120009A431043C861D4E907100143206802685C
:1011300022F0C00211430160D4E903010143206899
:10114000826848F2FF339A4311438160D4E9050174
:1011500008432168CA6822F0FF021043C86001E01A
:101160000EE016E02068016841F00101016025648D
:10117000202084F83D00256384F83E50002070BD97
:1011800001EB4106431EB3FBF6F35B1CB3E7012002
:10119000C2E701EB4101401EB0FBF1F0401CC0F37F
:1011A0000B00B7E7A086010080841E0000093D0007
:1011B00040420F002DE9F84F1F4690468A460446EC
:1011C000DDF82890FFF72CFF054694F83D00202815
:1011D0007FD11923012240492046009501F092F861
:1011E000002876D194F83C00012872D0012084F8C0
:1011F0003C0020680168C90703D1016841F0010182
:1012000001602068016821F400610160212084F8F8
:101210003D00102084F83E0000262664C4F8248097
:101220006785608D20852D48E0622B464A465146F1
:10123000204600F0F3FF90B9206841698069009072
:1012400036E02A464946204601F0DBF850B1206CD2
:10125000042804D12068016841F400710160012074
:10126000BDE8F88F606A216800780861606A401CF8
:101270006062618D491E6185218D491E89B221857B
:1012800022685369DB435B070BD451B100781061CE
:10129000606A401C6062608D401E6085208D401E2B
:1012A00020852A464946204601F006F80028CED17E
:1012B000208D0028C5D154F83D0B016841F4007120
:1012C0000160202004F81E09E67766770020C7E752
:1012D000FFE70220C4E70000020010000000FFFF4B
:1012E00010B586B0044614216846FFF7A9F81349E3
:1012F0002068884220D112480021026842F0020290
:101300000260006800F002000590C02000901220EA
:10131000CDE90101032003900420049069460948A7
:10132000FFF780FD06481030016841F400110160AC
:10133000006800F40010059006B010BD0054004095
:1013400030380240000402400248816802781144AB
:1013500081607047280000200B4810B5016841F4F7
:1013600000710160016841F480610160016841F42D
:1013700080710160032000F06FF80F2000F006F884
:1013800000F024F8002010BD003C024070B50D4D67
:1013900004464FF47A712878B1FBF0F00A490968E5
:1013A000B1FBF0F000F0F3FD48B9102C07D2002299
:1013B0002146501E00F030F800206C6070BD012006
:1013C00070BD000028000020340000200A4808B545
:1013D000016841F480410160006800F480400090A1
:1013E0000548001F016841F080510160006800F06D
:1013F0008050009008BD000044380240002809DBFE
:1014000000F01F02012191404009800000F1E0201E
:10141000C0F8001170470000F0B40E4B1B680C467A
:10142000C3F30223C3F10705042D00D90425191DB8
:10143000072901D2002300E0DB1E012606FA05F190
:10144000491E214099409E40761E16403143F0BC13
:1014500001F03BBE0CED00E0064900F00702086811
:101460004FF6FF03184040EA0220034A1043086089
:10147000704700000CED00E00000FA052DE9F04790
:101480000E46050065D0DFF81481D8F80000F7B2E9
:1014900000F00700B04207D288F80070D8F80000CA
:1014A00000F00700B04254D128683D4C810712D5A6
:1014B000400703D5206840F4E050206028780007FA
:1014C00003D5206840F4604020602068A96820F0BF
:1014D000F000084320602878C0072DD030496868A4
:1014E0000839012812D0022813D0032811D0096826
:1014F000890700292DDA216821F0030101432160C9
:10150000FFF78EFD814641F2883A0EE009688903B3
:10151000EFE709688901ECE7FFF782FDA0EB09011D
:10152000514502D90320BDE8F0872068696800F0C2
:101530000C00B0EB810FEFD1D8F80010404601F05D
:101540000701B14207D90770006800F00700B042F8
:1015500001D00120E7E72878400705D52068E96831
:1015600020F4E050084320602878000706D5206862
:10157000296920F4604040EAC100206000F038F89A
:101580002168084AC1F30311515CC840064908604C
:1015900006480068FFF7FAFE0020C4E7003C02405E
:1015A000083802403E350008340000202C0000209E
:1015B0000448054900680968044AC1F38221515C66
:1015C000C840704734000020083802404E350008FB
:1015D0000448054900680968044AC1F34231515C76
:1015E000C840704734000020083802404E350008DB
:1015F000154810B5006810F00C02144813D01449B7
:10160000042A0FD0082A0ED10F4C241F2268236809
:1016100002F03F025B0207D52068C0F38810A0FBF0
:10162000010106E0084610BD2168C1F38811A1FB45
:1016300000010023FEF73CFE2168C1F30141491C73
:101640004900B0FBF1F010BD083802400024F4005E
:1016500040787D012DE9F84F04006ED02078DFF846
:101660004C93C007A9F104054AD009F104000168B0
:10167000C1F38101012908D00068C0F3810002286C
:101680000AD1D9F80000400206D52868800337D572
:1016900060680028E1D033E06068B0F5803F10D08A
:1016A000B0F5A02F286810D020F48030286028687A
:1016B00020F4802028606068A8B1FFF7B1FC0646DE
:1016C0000DE0286840F48030F4E740F48020286082
:1016D000F7E700BFFFF7A4FC801B642873D82868D5
:1016E0008003F7D50CE0FFF79BFC064605E000BF42
:1016F000FFF796FC801B6428F0D828688003F7D495
:101700002078DFF8AC8280074FF0000A3ED5A7486A
:10171000001D016811F00C0F08D00068C0F38100B3
:1017200002280BD1D9F80000400207D428688007AE
:1017300016D5E068012800D112E033E1E068B8B1C5
:101740000120C8F80000FFF76BFC064605E000BF6B
:10175000FFF766FC801B0228C0D828688007F7D5F1
:101760002868216920F0F80040EAC10028600DE0F7
:10177000C8F800A0FFF754FC064604E0FFF750FC51
:10178000801B02281FD828688007F7D4207800071C
:1017900022D5864F87486169703771B10121016098
:1017A000FFF73EFC064604E0FFF73AFC801B0228E8
:1017B00009D838688007F7D50EE0C0F800A0FFF719
:1017C0002FFC064605E082E0FFF72AFC801B02287A
:1017D0007DD838688007F7D42078400768D5DFF8CF
:1017E000CCB100270BF13C0BDBF80000C0000BD4A0
:1017F000DBF8001041F08051CBF80010DBF800005E
:10180000012700F0805000906B4E3068C00510D466
:10181000306840F480703060FFF702FC009005E013
:10182000FFF7FEFB0099401A022850D83068C00527
:10183000F6D55E4EA0686C3601280FD005283068BA
:1018400010D020F001003060306820F004003060DB
:10185000A068B8B1FFF7E4FB00900FE0306840F0FB
:101860000100F4E740F004003060F7E7FFF7D8FB31
:101870000099411A41F28830814266D83068800769
:10188000F4D50EE0FFF7CCFB009007E0FFF7C8FBB4
:101890000099411A41F28830814256D83068800759
:1018A000F4D42FB1DBF8001021F08051CBF80010F8
:1018B000A069C8B33D49091D0968C1F38101022926
:1018C0004AD00228504607D0C8F8600000E03CE04B
:1018D000FFF7A6FB04463BE04746C8F86000FFF769
:1018E0009FFB064605E000BFFFF79AFB801B02281E
:1018F0002BD828688001F7D4D4E907010843A16AEE
:101900002E4A490802EB0141626A41EA821108430A
:1019100094F82C1040EA0161C9F8001001203866E3
:10192000FFF77EFB044606E03EE000BFFFF778FBD2
:10193000001B022809D828688001F7D534E000BFD1
:10194000FFF76EFB001B022802D90320BDE8F88FC9
:1019500028688001F4D427E00128F7D0D9F80000E6
:10196000E26900F4800191421CD1226A00F03F013B
:10197000914217D147F6C071626A0140B1EB821FF4
:1019800010D1A26A4FF0FF3300F4403103EB520252
:10199000B1EB024F06D194F82C1000F07060B0EB60
:1019A000016F01D00120D1E70020CFE704380240C9
:1019B00000004742800E4742007000400000FFFFD9
:1019C00090F85100704770B5040009D0606A002596
:1019D00040B125616561A56294F8510040B10CE009
:1019E000012070BD6068B0F5827FF4D0E561F2E758
:1019F00084F85050204600F045F8022084F8510049
:101A00002068016821F040010160A088218900F46C
:101A1000827001F404410843A18901F40061084384
:101A2000217C01F002010843217D01F001010843FE
:101A3000218B01F400710843217F01F03801084334
:101A400094F8201001F080010843218D01F4005129
:101A5000084321680860A069042101EA104094F855
:101A6000241001F010010843216848602068C16912
:101A700021F40061C1616565012084F851000020F6
:101A800070BD000010B586B0044614216846FEF70C
:101A9000D7FC13492068884220D1124800210268EF
:101AA00042F480520260006800F4805005900D48B6
:101AB0001438026842F001020260006800F0010080
:101AC0000590E02000900220CDE901010320039061
:101AD0000520049069460448FFF7A4F906B010BD3C
:101AE0000030014044380240000002402DE9F84F28
:101AF000044640680025984616460F464FF0040BF2
:101B0000B0F5827F01D1A06888B194F85000012817
:101B100018D0012084F85000FFF782FA814694F82B
:101B200051004FF0000A01280ED0022582E084F80F
:101B300051B013460A462046CDF8008000F036F931
:101B4000BDE8F88F0220FBE7002F72D0002E70D086
:101B500084F851B0C4F854A0A763A687E687C4F8F8
:101B600030A0A4F834A0A4F836A0C4F840A0C4F86B
:101B700044A0A068B0F5004F09D12068016821F0A9
:101B8000400101602068016821F480410160206803
:101B90000168490603D4016841F040010160E06832
:101BA000D8B139E020688168C90709D0007BA16BF2
:101BB0000870A06B401CA063E08F401EE0870CE023
:101BC000FFF72EFAA0EB0901414503D3B8F1FF3F1F
:101BD00003D036E0B8F1000F33D0E08F0028E1D118
:101BE0001DE020688168C90709D0C068A16B088022
:101BF000A06B801CA063E08F401EE0870CE0FFF725
:101C00000FFAA0EB0901414503D3B8F1FF3F03D020
:101C100017E0B8F1000F14D0E08F0028E1D14A4658
:101C20004146204600F091FF08B120206065606DBC
:101C300000B10125012084F8510084F850A0284605
:101C40007EE70325F6E72DE9F84F044690F85000AB
:101C500000271D461646894601280DD04FF0010B7E
:101C600084F850B0FFF7DCF9804694F85100BA468A
:101C7000012804D0022793E00220BDE8F88FB9F1D3
:101C8000000F73D0002E71D0032084F85100C4F8E7
:101C900054A0C4F83090A686E686C4F838A0A4F80C
:101CA0003CA0A4F83EA0C4F844A0C4F840A0A0689A
:101CB000B0F5004F09D12068016821F040010160B2
:101CC0002068016841F4804101602068016849068C
:101CD00003D4016841F040010160E068B0F5006F95
:101CE000606803D030B3012E24D041E008B1012E4A
:101CF0001CD1206B21680088C86006E020688168DC
:101D0000890709D5216B0988C160206B801C20637D
:101D1000E08E401EE08609E0FFF782F9A0EB0800A4
:101D2000A84202D3681C01D031E07DB3E08E0028C8
:101D3000E4D120E0206B21680078087306E0206879
:101D40008168890709D5216B09780173206B401CD4
:101D50002063E08E401EE0860AE0FFF761F9A0EB09
:101D60000800A84203D3681C02D010E017E06DB150
:101D7000E08E0028E3D142462946204600F014FFB9
:101D800008B120206065A06818B106E0FFE70327CE
:101D900006E02068C16880680090606D00B101278E
:101DA00084F851B084F850A0384666E72DE9F84F22
:101DB000044690F8500000270A9E1D4692468B4626
:101DC0004FF0010901280ED0012084F85000FFF7E0
:101DD00027F9804694F85100616801280CD0B1F5CC
:101DE000827F07D102E00220BDE8F88FA16809B91F
:101DF000042801D00227C2E0BBF1000F27D0BAF1BE
:101E0000000F24D01DB394F85100042802D00520FF
:101E100084F8510000206065C4F838A0E587A587E4
:101E2000C4F830B0E586A586206460642068016847
:101E3000490603D4016841F040010160E068B0F553
:101E4000006F606805D0E8B3012D46D07FE0012720
:101E500095E008B1012D39D1206B21680088C86058
:101E6000206B801C2063E08E401EE0862EE0206800
:101E7000816889070FD5E18E69B1B9F1010F0AD1E7
:101E8000216B0988C160206B801C2063E08E401E9E
:101E9000E0864FF0000920688168C9070CD0E18F07
:101EA00051B1C068A16B0880A06B801CA063E08F5B
:101EB000401EE0874FF00109FFF7B2F8A0EB0800E1
:101EC000B04200E009E001D3701C50D1E08E002840
:101ED000CDD1E08F0028CAD13FE0206B2168007887
:101EE0000873206B401C2063E08E401EE0862EE0CD
:101EF0002068816889070FD5E18E69B1B9F1010FBA
:101F00000AD1216B09780173206B401C2063E08E9D
:101F1000401EE0864FF0000920688168C9070CD098
:101F2000E18F51B1C068A16B0870A06B401CA06329
:101F3000E08F401EE0874FF00109FFF771F8A0EB3A
:101F40000800B04202D3701C01D010E07EB1E08ED8
:101F50000028CDD1E08F0028CAD142463146204624
:101F600000F022FE28B101272020606507E003274A
:101F700005E0A06818B92068C16880680090012059
:101F800084F85100002084F8500038462CE710B542
:101F9000401EB0F1807F01D3012010BD4FF0E0243E
:101FA00060610F21601701F090F80020A061072008
:101FB0002061002010BD7047704770B5040004D048
:101FC00094F83D00002510B106E0012070BD84F8B2
:101FD0003C50204600F022F8242084F83D00206880
:101FE000C16821F40051C160204600F061FF206803
:101FF000016921F4904101612068416921F02A01C1
:1020000041612068C16841F40051C160256420200D
:1020100084F83D0084F83E00002070BD70B586B0A5
:10202000064614216846FEF70BFA204930688842BC
:1020300039D11F480025016841F010010160006896
:1020400000F0100005901A481438016841F00101B1
:1020500001600068694600F0010005904FF4C0601F
:1020600000900220CDE90105032003900720049091
:102070001048FEF7D7FE114C0F4820604FF000606B
:10208000C4E901054014C4E9035080106561C4E946
:102090000650256220466562FEF7E8FD08B1FEF7AE
:1020A000EBFBB463A66306B070BD000000100140F6
:1020B0004438024000000240406402409402002084
:1020C00090F83E30202B0ED159B152B190F83C30EF
:1020D000012B08D0012380F83C300023036300F07B
:1020E0006DBF0120704702207047000070B5006886
:1020F0000E49884213D10E480124A0F1200506782C
:102100004378C27801794079412E09D0422E06D118
:10211000302B04D1EB1C1A7059709870AC7070BDE4
:10212000302BFCD1024B173BF5E7000000100140BB
:1021300020000020704700002DE9F843044690F885
:102140003D001F4616460D4620284CD1C5B1BEB1F4
:1021500094F83C00012846D0012084F83C004FF060
:102160000008C4F84080212084F83D00FEF758FFA5
:10217000A6848146E684A068B0F5805F03D004E0C1
:102180000120BDE8F883206928B12E465FF00005E4
:1021900084F83C800EE00026FAE78021204600F01B
:1021A00057FFA0B9AEB116F8010B21684860E08C6A
:1021B000401EE084E08C4B464FF000020097002860
:1021C000EBD14FF04001204600F042FF30B1032038
:1021D000D7E735F8020BC0F30800E6E7202084F8C3
:1021E0003D000020CDE70220CBE7FEE701684A6909
:1021F000D24352050FD46FF480624A61002140F847
:10220000301F202242738173026942F0040202618E
:10221000017301207047002070470000F8B50446A4
:10222000C06A1E460D461746082807D0012805D06B
:1022300010F5803F02D0206B122804D1206801687D
:1022400041F480710160134600224FF001112046D5
:10225000009600F057F840B120680068C00502D52C
:102260004FF4007020640320F8BD2069B0F5804F62
:102270000ED00620216800EAD51040F0F000086179
:1022800033463A460B49204600F070F878B902E030
:1022900005F0FE0000E0E8B2216808610549334618
:1022A0003A46891F204600F061F80028DCD0012062
:1022B000F8BD00000800010070B516460D46044642
:1022C0000DE02046FFF792FF08B1012070BD681CA9
:1022D00005D0FEF7A5FE801BA84207D835B12068BF
:1022E0004069C0434007ECD4002070BD002044F892
:1022F000300F20216173A073216941F02001216119
:102300002073E2E72DE9F0471E4690460D4604464D
:10231000C1F30747DDF8209008E0701C06D0FEF7F7
:102320007FFEA0EB0900B0420FD876B12068012FE4
:1023300018D0806925EA00000004000C14D00021A8
:102340004145EAD00020BDE8F087002044F8300F76
:1023500020216173A073216941F020012161207364
:102360000120F0E74069E5E70121E9E72DE9F047C1
:102370009A4691460E46044600254FF02008C1F3C8
:10238000074725E020684069C043400514D4206811
:10239000016841F40071016021686FF48060486158
:1023A000256384F83D8084F83E50206C40F00400A2
:1023B000206484F83C501FE0B9F1FF3F08D0FEF7DD
:1023C0002FFEA0EB0A0149450CD8B9F1000F09D046
:1023D0002068012F13D0806926EA00000004000C59
:1023E0000BD0CFE744F8305F84F80D80A5732069E7
:1023F00040F02000206125730120BDE8F08740698E
:10240000EAE770B516460D4604460DE02046FFF794
:10241000EDFE08B1012070BD681C05D0FEF700FE7E
:10242000801BA84207D835B120684069C043000628
:10243000ECD4002070BD002044F8300F20216173DF
:10244000A073216941F0200121612073E2E7F8B512
:10245000044641F080008DF8000017461E46A18812
:1024600000222068FEF7D6FD4FF4FA652B460122C4
:102470006946A069FFF7E7FBA069FFF7A1FA012809
:10248000FAD12B4632463946A069FFF7DCFBA0693A
:10249000FFF796FA0128FAD1A18801222068FEF7F9
:1024A000B9FDF8BD70B50C460546012100F09CF859
:1024B000024644B1012C0BD0032C0FD0052C13D0B5
:1024C000062C17D01BE0002002F0F802E86116E0AD
:1024D000012002F0F802521CE86110E0032002F033
:1024E000F802D21CE8610AE0052002F0F802521D51
:1024F000E86104E0062002F0F802921DE861284637
:10250000BDE87040012100F0A3B970B50446002178
:10251000FFF7C8FF0A20FEF74BFC0121204600F020
:1025200063F805460A20FEF743FC45F080020121CE
:10253000204600F08DF96420FEF73AFC2046216A1F
:1025400000F0CBF894F82A10204600F005F994F832
:102550002B10204600F0E1F823220C21204600F049
:1025600077F9204600F01FF994F82410204600F077
:10257000FDF8FF221F21204600F06AF994F825009B
:1025800094F82610000100EB4100C2B21D21204644
:1025900000F05EF9208D2021020A204600F058F953
:1025A00094F828202121204600F052F940212046AD
:1025B00000F01AF840F03F024021204600F048F9B0
:1025C00001212046FFF76EFF0120E0610A20FEF79F
:1025D000EFFB4221204600F007F8122802D04FF40A
:1025E000CA7070BDC82070BD0EB501F07F018DF8B6
:1025F000081001210A46009101AB02A900F003F87E
:102600009DF804000EBD2DE9F0470E461546044620
:1026100081889846DDF8209000680022FEF7FAFCD9
:102620004FF4FA673B462A463146A069FFF70BFB99
:10263000A069FFF7C5F90128FAD13B464A46414651
:10264000A069FFF753FAA069FFF7BAF90128FAD198
:10265000A1882068BDE8F0470122FEF7DBBC2DE928
:10266000F04100250E46074614462846294601E05B
:102670003154401CA042FBDB01213846FFF712FF1A
:1026800012213846FFF7B0FF40061FD5FF22122166
:10269000384600F0DDF813213846FFF7A5FF054660
:1026A00010213846FFF7A0FF02460D21384600F002
:1026B000CFF8AC4200D22546002405E00021384680
:1026C000FFF792FF3055641CAC42F7DB052138461A
:1026D000FFF7E8FE2846BDE8F08170B50546C8045E
:1026E0004411C4F307420621284600F0B1F8052042
:1026F000FEF75EFBC4F307220721284600F0A8F886
:102700000520FEF755FBE2B20821284600F0A0F8AC
:10271000BDE870400520FEF74BBB10B52D2901D256
:102720002D2105E0F02901D9F02106E0782904D80F
:1027300005222D3991FBF2F103E00A221E31B1FB93
:10274000F2F1C9B22031CAB20B2100F081F8BDE824
:1027500010400A20FEF72CBB10B50A46092100F0F4
:1027600077F8BDE810400A20FEF722BB70B50C4692
:1027700006460C2901DD0C2402E0072C00DA0724B0
:102780001E21FFF731FF05460A20FEF711FB64F317
:102790001F15EAB21E21304600F05AF8BDE870401D
:1027A0000A20FEF705BB10B504461E21FFF71CFFEB
:1027B00040F007021E21204600F04AF8BDE8104014
:1027C0000A20FEF7F5BA0521FFF76CBE2DE9F041AE
:1027D0000F461C46164680460121C569FFF762FE7A
:1027E0000E214046FFF700FF02460D21404600F053
:1027F0002FF832462221404600F02AF833463A4666
:1028000000214046FFF723FE03214046FFF74AFE22
:1028100012214046FFF7E8FE00070BD5FF221221E8
:10282000404600F015F829464046FFF73BFE0120E0
:10283000BDE8F081641E2404240C03D00120FEF7BF
:10284000B7FAE5E729464046FFF72CFE0020EFE700
:102850000EB541F080018DF8081001218DF804209B
:102860000A46009101AB02A900F001F80EBD2DE966
:10287000F0470E461546044681889846DDF82090BC
:1028800000680022FEF7C6FB4FF4FA673B462A4673
:102890003146A069FFF7D7F9A069FFF791F8012841
:1028A000FAD13B464A464146A069FFF7CCF9A069F8
:1028B000FFF786F80128FAD1A1882068BDE8F04723
:1028C0000122FEF7A7BB00007FB500242448009436
:1028D0000194029421490394016001254FF4803151
:1028E0000561C0E90114047680F820401D49C0E963
:1028F0000A140426C661C46080F830404561FEF7C2
:102900006FF808B1FDF7B8FF0095CDE901546946AD
:102910001348FDF7B3FF08B1FDF7AEFF02200090AA
:10292000019069460E48FDF7A9FF08B1FDF7A4FF25
:1029300003200090019069460948FDF79FFF08B108
:10294000FDF79AFF0096694605480196FDF796FF48
:10295000002801D0FDF790FF7FBD0000002001405E
:10296000FC0000200100000F0D4808B5016841F48B
:10297000800101600068002200F480000090114690
:102980003820FEF749FD3820FEF738FD00221146B9
:102990003A20FEF741FDBDE808403A20FEF72EBD83
:1029A00030380240F0B587B014216846FDF748FD85
:1029B00031480024016841F004010160016801F020
:1029C00004010591016841F080010160016801F096
:1029D00080010591016841F001010160016801F089
:1029E00001010591016841F0020101600068234E78
:1029F00000F00200059000224FF400513046FEF72F
:102A000009FB01224FF440413046FEF703FB1C4F07
:102A1000012203213846FEF7FDFA00224FF45051FF
:102A20003846FEF7F7FA4FF4604000900125CDE9F3
:102A30000154694630460394FEF7F4F943F203402B
:102A40000090CDE90154694638460394FEF7EAF94F
:102A5000042000904FF48810CDE9010469463846FF
:102A6000FEF7E0F9002211460820FEF7D5FC082009
:102A7000FEF7C4FC07B0F0BD303802400008024049
:102A8000000402400D4810B50B4901600C4941603B
:102A900000214FF480428160C0E9031241618161ED
:102AA000C1610162FEF7C2FA002803D0BDE8104000
:102AB000FDF7E2BE10BD000000540040A40100205C
:102AC000A0860100104810B50E4901604FF48271D4
:102AD000416000218160C1604FF400720161C0E972
:102AE00005121022C0E90721416281620A21C162F8
:102AF000FEF769FF002803D0BDE81040FDF7BCBE1B
:102B000010BD000000300140F80100200C4810B555
:102B10000A4901604FF416514160002181600C2286
:102B2000C160C0E904128161C161FFF746FA002863
:102B300003D0BDE81040FDF79FBE10BD001001405E
:102B400050020020FEE7FEE77047F8B504464068F3
:102B50004FF48273984221D1A0684FF48065B0F59C
:102B6000004F01D0A8420AD12068066826F040062E
:102B700006606068984211D1A068A8420ED0009209
:102B80000B4600228021204600F03AF8002804D0AD
:102B9000606D40F0200060650320F8BD00920B4698
:102BA00000220121EFE7000038B504461248134B1C
:102BB0000068B0FBF3F04FF47A73584300906068FC
:102BC000B0F5827F0DD10B46009200228021204675
:102BD00000F016F870B1606D40F0200060650320D1
:102BE00038BD009830B1401E009020688068C04316
:102BF0000006F6D5002038BD3400002000366E01F6
:102C00002DE9F8431E46914688460446089DFEF786
:102C100007FA401B351AFEF703FA074625480068F5
:102C2000C0F3CB30684338E0701C37D0FEF7F8F9BA
:102C3000C01BA84203D215B1009860B32CE02068F5
:102C4000416821F0E00141606068B0F5827F0BD1FE
:102C5000A068B0F5004F02D0B0F5806F04D12068B5
:102C6000016821F040010160A06AB0F5005F09D160
:102C70002068016821F4005101602068016841F476
:102C800000510160012084F85100002084F85000B8
:102C90000320BDE8F8830025401E0090206881686D
:102CA00038EA010004D000214945BDD10020F0E7F9
:102CB0000121F9E7340000207047FEF745BB000012
:102CC00030B593B030216846FDF7BAFB14210CA84B
:102CD000FDF7B6FB1C480025016841F080510160FA
:102CE000006800F0805011901848016841F440419C
:102CF00001600068022400F440401190012000901F
:102D0000000401908001CDE906400C20089060206D
:102D1000CDE9090404200B906846FEF79BFC08B13E
:102D200072B6FEE70CA90F2081E831004FF4805005
:102D3000CDE90F0503210CA8FEF7A0FB002801D068
:102D400072B6FEE713B030BD40380240007000405C
:102D50000248016841F470010160704788ED00E0AD
:102D600070B5846B2068406994F83D10C0F3C010C2
:102D70000025212904D118B1E584204600F08AF805
:102D80002068406994F83E10C0F38010222904D1D5
:102D900018B1E585204600F056F8206C40F0100090
:102DA00020642046FFF708F970BD10B50146806B1E
:102DB00009680968C9052FD40021C18501680C3153
:102DC00051E8002F22F4807241E80023002BF5D156
:102DD0000168143151E8002F22F0010241E800237C
:102DE000002BF5D10168143151E8002F22F0400288
:102DF00041E80023002BF5D1202180F83E10016B23
:102E0000012909D101680C3151E8002F22F010028C
:102E100041E80023002BF5D1016B012902D0FFF717
:102E200065F910BD818DFFF7C6F810BD10B5806B38
:102E3000016B012902D0FFF77DF910BD818D490892
:102E4000FFF7B9F810BD01680C3151E8002F22F4EA
:102E5000907241E80023002BF5D10168143151E84C
:102E6000002F22F0010241E80023002BF5D1016B75
:102E7000012909D101680C3151E8002F22F010021C
:102E800041E80023002BF5D1202180F83E100021DD
:102E90000163704701680C3151E8002F22F0C00235
:102EA00041E80023002BF5D1202180F83D10704728
:102EB00070B5044600680169E26821F4405111438D
:102EC00001612169A068E26908436169114308430F
:102ED0002168CA6849F20C639A430243CA602068B9
:102EE0004169A26921F4407111434161314920686F
:102EF000884202D03049884202D1FEF769FB01E0E6
:102F0000FEF756FBE2690023192164253226B2F54B
:102F1000004F626828D0A0FB0101930F9200FDF7DB
:102F2000C7F90146B0FBF5F06FF01802504301EB12
:102F3000800006EB0010B0FBF5F000F0F002B1FBF2
:102F4000F5F002EB0012B1FBF5F06FF018035843F7
:102F500001EB800006EB0010B0FBF5F000F00F0075
:102F600021681044886070BDA0FB010192185B418C
:102F7000FDF79EF90146B0FBF5F00201B1FBF5F05B
:102F80006FF01803584301EB800006EBC000B0FB64
:102F9000F5F000F0F80002EB4002B1FBF5F0584309
:102FA00001EB800006EBC000B0FBF5F000F007007D
:102FB000D6E70000001001400014014038B58162DE
:102FC00082850025134604460564222084F83E00CD
:102FD000A26B1C48D063A26B1B481064A26B1B48F9
:102FE000D064A06B0A4605652168A06B091DFDF73A
:102FF000A7FE206801684068009084F83C50206972
:1030000048B120680C3050E8001F41F4807140E85E
:103010000012002AF5D12068143050E8001F41F05A
:10302000010140E80012002AF5D12068143050E870
:10303000001F41F0400140E80012002AF5D10020B5
:1030400038BD0000AB2D00082D2E0008612D0008B2
:103050002DE9F041984617460E460446069D27E0A6
:10306000681C25D02DB1FDF7DBFFA0EB0800A842BE
:103070001ED920680C3050E8001F21F4D07140E8C0
:103080000012002AF5D12068143050E8001F21F00A
:10309000010140E80012002AF5D1202084F83D000B
:1030A00084F83E00002084F83C000320BDE8F08155
:1030B0002068006836EA000004D00020B842CFD073
:1030C0000020F3E70120F9E7FEE70907090E0028D1
:1030D00004DB00F1E02080F80014704700F00F00DE
:1030E00000F1E02080F8141D7047000070B50C4D11
:1030F00000244FF40046002231462846FDF78AFF9F
:103100003220FDF755FE012231462846FDF782FFA9
:103110003220FDF74DFE641C052CECDB70BD000079
:103120000008024070B50C4D00244FF48066012267
:1031300031462846FDF76EFF6420FDF739FE002278
:1031400031462846FDF766FF6420FDF731FE641C1A
:10315000032CECDB70BD00000004024010B5FDF74D
:103160006DF8052190FBF1F201FB12006421AA30F9
:1031700090FBF1F2094930320A700A2290FBF2F317
:1031800093FBF2F402FB143330334B7090FBF2F3F9
:1031900002FB13003030887010BD000006000020D4
:1031A00010B5FDF74BF8032190FBF1F201FB120083
:1031B000074930224D300A700A2290FBF2F3303377
:1031C0004B7090FBF2F302FB13003030887010BD9F
:1031D0000900002010B50A48FFF797F90246094890
:1031E000C82A4FF480414FF0010202D1064B1A70F9
:1031F0000022FDF70FFFBDE810400148FFF7E3BADA
:1032000044000020000802400000002000B58BB000
:10321000684600F06FF92C2269461148FDF7DEF888
:103220000F481049012202C0022320F8082B40F861
:10323000041C03804160042101810B49C16040F2FC
:10324000B11141610A210176072141768276FC2184
:1032500081776421C177082181830BB000BD000014
:103260004400002000040240F801002008B5FEF7E9
:1032700073F8FFF725FDFFF795FBFFF775FBFFF7E9
:1032800021FCFFF743FCFFF71FFBFFF7FBFB00F000
:10329000E7F85F48FDF7CDF9002201215C48FDF712
:1032A00023FA5CA15A48FDF744FA01220321584849
:1032B000FDF71AFA5BA15648FDF73BFA00255C4C76
:1032C000FDF7AEFE2169401AA169884209D9FFF7CE
:1032D00081FF4FF400515748FDF794FEFDF7A0FE23
:1032E0002061FDF79DFE6169401AE1698842E7D9D6
:1032F000607818B3FFF7FAFE4548FDF79AF9002207
:1033000001214348FDF7F0F942A14148FDF711FAC8
:10331000012200213E48FDF7E7F947A13C48FDF7AF
:1033200008FA49A00A230068009004226946474829
:10333000FEF702FF3220FDF73BFD6570A078002804
:1033400061D03348FDF775F9002201213048FDF7BF
:10335000CBF930A12E48FDF7ECF9012200212C48D1
:10336000FDF7C2F93AA12A48FDF7E3F9FFF7F6FEA7
:10337000FFF716FF26484221B8304FF4FA76017065
:10338000302141702A49334609310A7882704A78DF
:10339000C270897801712649C91C0A7842714A783D
:1033A00082718978C1712249891D0A7802724A782E
:1033B0004272897881723121C17201460C22AC3887
:1033C000FFF704FA12493346B8310C22A1F1AC00E0
:1033D000FFF7FCF9A5707000FDF7EAFC0C48FDF75B
:1033E00028F9002201210A48FDF77EF909A10848C1
:1033F000FDF79FF9012203210548FDF775F909A1A1
:103400000348FDF796F9FDF70BFE606158E70000F1
:1034100038000020534C415645204D4F4E49544FE3
:10342000520000004D44462047524F5550000000C6
:103430000000002000080240526561642053656E60
:10344000736F722E2E2E000042300A0050020020B0
:1034500053656E6420446174612E2E2E00000000BE
:1034600038B51D49322337200B70487035228A70D9
:10347000C91C31240C7048708B70C91C30230B7030
:10348000487038248C70C91C0B704A7088700220F8
:10349000009010234E2211491148FDF7D4F80E492F
:1034A00007221D310F48FEF70BFEFFF7AFFEFFF7B7
:1034B00091FEC820FDF77CFC0948FDF7BAF8002210
:1034C00011460748FDF710F907A10548FDF731F946
:1034D000BDE83840FFF726BE03000020A40100200D
:1034E0003800002050020020496E697420446F6E3D
:1034F0006521000000B58BB040F2B11108910721A1
:103500008DF824108DF8251001218DF82610FF214B
:103510008DF82A1064218DF82B100821ADF82810A1
:103520002C226946FCF75AFF0BB000BD4FF04070EB
:10353000E1EE100A70470006101600061016000093
:103540000000000000000102030406070809000053
:10355000000001020304000078350008000000208C
:1035600038000000D4010008B03500083800002001
:10357000000A0000F0010008000000000000000048
:10358000000000000000000000000000000000003B
:10359000E8030000F401000000000000000000004B
:1035A0000100000010000000000000000024F400F2
:040000050800019955
:00000001FF
