:020000040800F2
:1000000068080020390200085B230008771C0008FC
:1000100059230008C90500087D25000800000000DC
:10002000000000000000000000000000CD240008D7
:1000300055060008000000005D230008CF240008DA
:10004000530200085302000853020008530200083C
:100050005302000853020008530200087D060008FE
:10006000530200085302000853020008530200081C
:10007000530200085302000853020008530200080C
:100080005302000853020008950400080000000015
:1000900000000000000000000000000083060008CF
:1000A00053020008530200085302000853020008DC
:1000B00053020008530200085302000853020008CC
:1000C00053020008530200085302000853020008BC
:1000D0005302000853020008530200080000000009
:1000E00057060008530200085302000800000000F1
:1000F00000000000000000000000000053020008A3
:1001000000000000530200085302000853020008D8
:1001100000000000000000000000000000000000DF
:10012000CD050008530200085302000853020008DE
:100130005302000800000000000000000000000062
:100140000000000000000000000000005302000852
:10015000530200085302000853020008530200082B
:1001600053020008530200080000000000000000D5
:10017000000000000000000000000000000000007F
:100180000000000053020008000000000000000012
:10019000530200085302000800F002F800F03CF897
:1001A0000AA090E8000C82448344AAF10107DA45D2
:1001B00001D100F031F8AFF2090EBAE80F0013F0E8
:1001C000010F18BFFB1A43F00103184780260000F7
:1001D000A0260000103A24BF78C878C1FAD8520788
:1001E00024BF30C830C144BF04680C6070470000B1
:1001F0000023002400250026103A28BF78C1FBD830
:10020000520728BF30C148BF0B6070471FB502F0CE
:100210000BFB1FBD10B510BD00F001F91146FFF733
:10022000F5FF02F027FA00F01FF903B4FFF7F2FF21
:1002300003BC00F027F9000009488047094800473F
:10024000FEE7FEE7FEE7FEE7FEE7FEE7FEE7FEE786
:10025000FEE7FEE704480549054A064B70470000E3
:100260006D25000899010008680200206808002038
:10027000680400206804002053EA020C00F0698042
:100280002DE9F04B4FF00006002B1FBFB3FA83F5AA
:1002900003FA05F424FA05F65E4012BF1643B2FADB
:1002A00082F502FA05F4C5F120051EBF22FA05FC0D
:1002B00044EA0C04203556EA044C4FEA144418BFB3
:1002C000641C4FF000084FF00009904271EB030CE2
:1002D00039D3002919BFB1FA81F701FA07F6B0FA4C
:1002E00080F700FA07F6C7F120071EBF20FA07FCC7
:1002F00046EA0C062037B6FBF4FCA7EB0507103FD7
:1003000007F01F0BCBF120060CFA0BFB2CFA06F6BC
:1003100044BFB3460026202FA4BF5E464FF0000B1B
:100320005BEA060C08BF4FF0010B19EB0B09ABFBA6
:10033000027C48EB0608C01B06FB02CC0BFB03CC7F
:1003400071EB0C01C1E70B46024641464846BDE849
:10035000F08B13B54FF000004FF00001AFF30080B9
:10036000BDE81C40704710B5203AC0F00B80B1E8E2
:100370001850203AA0E81850B1E81850A0E81850DA
:10038000BFF4F5AF5FEA027C24BFB1E81850A0E8E3
:10039000185044BF18C918C0BDE810405FEA827CFD
:1003A00024BF51F8043B40F8043B08BF7047D20714
:1003B00028BF31F8023B48BF11F8012B28BF20F8B5
:1003C000023B48BF00F8012B70474FF0000200B518
:1003D000134694469646203922BFA0E80C50A0E868
:1003E0000C50B1F12001BFF4F7AF090728BFA0E816
:1003F0000C5048BF0CC05DF804EB890028BF40F8E2
:10040000042B08BF704748BF20F8022B11F0804F23
:1004100018BF00F8012B704770477047704775464A
:1004200000F02CF8AE4605006946534620F0070060
:10043000854618B020B5FFF70DFFBDE820404FF00E
:1004400000064FF000074FF000084FF0000B21F0BE
:100450000701AC46ACE8C009ACE8C009ACE8C0098B
:10046000ACE8C0098D46704710B50446AFF3008074
:100470002046BDE81040FFF7D8BE00000048704796
:100480000802002001491820ABBEFEE7260002004A
:1004900070470000014800F0B7B90000FC000020E0
:1004A000464910B54A6822F440324A604A684368B7
:1004B0001A434A6001684A6822F480724A600168FF
:1004C0004A68036942EA03224A6001684A6822F0E6
:1004D00040724A6001684A6883681A434A6001684A
:1004E0008A6822F400628A6001688A68C3681A43D5
:1004F0008A60816A6FF07062D14201688A6822F076
:1005000070628A6001688A680CD0836A1A438A60C4
:1005100001688A6822F040528A6001688A68C36A6A
:100520001A4301E022F040528A6001688A6822F092
:1005300002028A6001688A68037E42EA43028A6096
:1005400090F82010002901684A680FD042F4006238
:100550004A6001684A6822F460424A6001684A6859
:10056000174C436A04EB43331A4301E022F4006260
:100570004A600168CA6A22F47002CA620168CA6AE3
:10058000838B104C04EB03531A43CA6201688A68D8
:1005900022F400728A6001688A6890F8303042EA7A
:1005A00043228A6001688A6822F480628A60016856
:1005B0008A68406942EA8020886010BD00230140BB
:1005C00000E0FFFF0000F0FFFEE70000014800F040
:1005D00031BA00004401002001681823CAB2103A61
:1005E000B2FBF3F2054B6FF30901032A9B5CC36571
:1005F00000D9091D816508467047000032280008AF
:1006000010B5014600208B698A6A4FF0C07453B15F
:10061000B3F5005F15D072B1012A0CD0022A0AD0BE
:10062000032A09D104E01AB1012A06D0022A03D113
:10063000C96AC90100D5012010BDC96AA142FAD01A
:1006400010BD002AF7D0012AF2D0022AF3D0032AE3
:10065000F3D010BD704710B54FF4806000F0ACFBD4
:100660004FF4006000F0A8FB4FF4805000F0A4FBB2
:10067000BDE810404FF4004000F09EBB022000F0A7
:100680009BBB10B54FF4807000F096FBBDE81040A6
:100690004FF4007000F090BB72B6FEE770470000A8
:1006A00078B50024009490F83C20012A19D001224A
:1006B00080F83C200A6807230568092A13D9EE68E8
:1006C0000A3A02EB420293409E43EE600B788A683E
:1006D0000A3B03EB43039A400368DD682A43DA6070
:1006E00010E0022078BD2E6902EB420293409E4347
:1006F0002E610B788A6803EB43039A4003681D69F7
:100700002A431A614A681F23072A13D205686E6BB1
:10071000521E02EB820293409E436E630A8893B29C
:100720000A79521E02EB820293400268556B2B43FA
:10073000536327E005680D2A12D22E6BD21F02EBFD
:10074000820293409E432E630B790A88DB1F92B28C
:1007500003EB83039A4003681D6B2A431A6311E07D
:10076000EE6A0D3A02EB820293409E43EE620B79F1
:100770000A880D3B92B203EB83039A400368DD6A5B
:100780002A43DA621B4B0568194A9D420AD10D685B
:10079000122D07D1556825F400055560556845F4BC
:1007A0008005556005689D421DD1134D0B68AB4215
:1007B00001D0112B17D1536823F480035360536881
:1007C00043F4000353600968A9420CD10B490C4A59
:1007D0000968B1FBF2F101EB8101490000E0491E1B
:1007E00000910029FBD180F83C40002078BD00003A
:1007F0000023014000200140120000104C000020A6
:1008000040420F007047704770B5044600680668A4
:10081000456816F0020F05F020012AD049B3216C7B
:10082000C90603D4216C41F400712164816811F080
:10083000405F17D1217EA9B9C16A11F4700F02D0AF
:10084000816849050ED4416821F020014160206C87
:1008500020F480702064206CC00403D4206C40F02D
:10086000010020642046FFF7CDFF21686FF01200E1
:10087000086016F0040F05F0800132D089B3206CB7
:10088000C00603D4206C40F40050206420688168C6
:1008900011F4401F1ED1816B11F4401F02D08168FA
:1008A000490517D44168490514D4816811F0405FA7
:1008B00010D1217E71B9416821F080014160206C26
:1008C00020F480502064206CC00503D4206C40F0DC
:1008D000010020642046FFF7E1FE21686FF00C0064
:1008E000086016F0010F05F040010FD071B12068CB
:1008F0000068C0070AD0206C40F480302064204695
:1009000000F043F821686FF00100086016F0200F36
:1009100005F080610ED000290CD0606C40F0020020
:10092000606420686FF0200505602046FFF76BFFCC
:100930002068056070BD70B504004FF0000503D05D
:10094000206C002610B107E0012070BD204600F0A9
:100950001DF8666484F83C60206CC00610D4206CDE
:1009600020F4885040F0020020642046FFF798FDF4
:100970006664206C20F0020040F00100206400E07A
:10098000012584F83C60284670BD704770B586B07C
:10099000064614216846FFF718FD21493068884251
:1009A0003CD120480025016841F480710160006855
:1009B00000F4807005901B481438016841F0010173
:1009C00001600068694600F0010005901E2000905B
:1009D0000320CDE90105144800F0FAF9144C13483E
:1009E000C4E900050015A560C4E90350400060613A
:1009F0008000A0614011C4E907052046656200F04F
:100A0000E9F808B1FFF748FEB4630022114612204E
:100A1000A66300F081FB122000F070FB06B070BDF1
:100A200000200140443802400000024010640240AF
:100A3000440100202DE9F84304464FF00009CDF8A9
:100A4000009063484FF41651A56D0068B0FBF1F7B4
:100A50002E6894F85C10082000FA01F131420FD0A2
:100A600021680A6852070BD50A6822F004020A605E
:100A700094F85C108840A860606D40F001006065EB
:100A800094F85C104FF0010808FA01F0304208D0E9
:100A900021684969090604D5A860606D40F002002C
:100AA000606594F85C1004208840304208D02168CA
:100AB0000968890704D5A860606D40F0040060658E
:100AC00094F85C1010208840304218D021680968E2
:100AD000090714D5A86020680168490304D5006897
:100AE000000308D5A16C07E00168C90503D40168BB
:100AF00021F008010160216C09B12046884794F873
:100B00005C1020208840304231D021680968C90635
:100B10002DD5A86094F8350005282068016806D016
:100B2000490347D5006800031DD4616C1CE021F027
:100B3000160101602068416921F080014161206C4B
:100B400008B9A06C20B12068016821F0080101609B
:100B500094F85C103F208840A86084F8358084F8C1
:100B60003490216D1FE0E16B09B120468847606D2C
:100B700000282BD0606DC00714D0052084F8350004
:100B80002068016821F0010101600098401C00907C
:100B9000B84203D820680068C007F6D184F83580D1
:100BA00084F83490E16C002910D001B02046BDE8F3
:100BB000F04308470168C905D5D4016821F0100148
:100BC000016084F8358084F83490CCE7BDE8F88380
:100BD0004C0000202DE9F041044600F0FBF90646E8
:100BE0005CB1022084F83500002584F83450206878
:100BF000016821F0010101600DE00120BDE8F081F4
:100C000000F0E8F9801B052805D920206065032045
:100C100084F83500F2E720680068C007F0D1226848
:100C2000116820480140D4E901031843D4E9033690
:100C30003343184363691843A3691843E3691843AE
:100C4000236A18430843616A042903D1D4E90B13CA
:100C500019430843106020684069666A20F0070164
:100C600030460E43012704280CD1A06A0643E06AEF
:100C700040B12046FFF7C4FC20B14020606584F8F5
:100C80003570BAE7206846612046FFF7A5FC94F866
:100C90005C203F2191408160656584F835700020BB
:100CA000ACE700003F8010F070B5044600F092F908
:100CB0000546601C02D004480078044400F08AF91C
:100CC000401BA042FAD370BD4000002070B506461C
:100CD00036480125364C808AB0422AD133498022D9
:100CE0002C31324801F0D0F830482C3001785129AD
:100CF0001FD1417830291CD1657082780021312ABA
:100D000002D0302A02D002E0A57000E0A170C278C3
:100D1000312A02D0302A02D002E0257100E0217190
:100D20000079312802D0302802D002E0A57100E01D
:100D3000A1714FF480711F488E4208D100F038F93C
:100D4000E071002819D0BDE8704001F05DBD4FF49E
:100D500000718E4207D100F02BF910B10020E07035
:100D60000AE00120FBE74FF480618E4208D100F0D9
:100D70001FF918B100206071257270BD0120FAE7DB
:100D8000B6F5004F08D0B6F5805FF6D125726079D0
:100D900050B10020607170BD2572E07810B1002064
:100DA000E07070BD0120FBE70120F3E75000002058
:100DB0000000002000000240044910B50A68024209
:100DC00002D00860FFF782FF10BD0000143C014014
:100DD0002DE9F84FDFF8B8A10022012403254FF0D8
:100DE0000F090AF1040BAAF1040E00BF0B6804FA04
:100DF00002F63340B34273D10F7907F00307012F96
:100E000001D0022F16D187684FEA420805FA08FC84
:100E100027EA0C07D1F80CC00CFA08FC4CEA070CC6
:100E2000C0F808C04768B7430E79C6F3001696406D
:100E30003E4346600E79F643B6070DD0C7685600AC
:100E400005FA06FC27EA0C07D1F808C00CFA06FCE4
:100E50004CEA070CC0F80CC00E7906F00306022E0F
:100E600010D1D60800EB8608D8F8206057074FEA63
:100E7000D76C09FA0CF7BE430F6907FA0CF7374332
:100E8000C8F8207006684FEA420C05FA0CF7BE431A
:100E90000F7907F0030707FA0CF7374307604E682E
:100EA00016F4403F6DD03B4E376847F480473760BB
:100EB000366822F0030706F480460096364E07EBAC
:100EC000060CDCF8086897073F0F09FA07F826EACE
:100ED0000806DFF8C880404503D14FF000081EE047
:100EE0004FE0DFF8BC80404502D14FF0010816E02A
:100EF000DFF8B080404502D14FF002080FE0DFF884
:100F0000A880404502D14FF0030808E0DFF89C803C
:100F1000404502D14FF0040801E04FF0070808FAFD
:100F200007F848EA0608CCF80888DAF8006057465F
:100F3000D1F804C09E435FEACC2C00D51E433E602E
:100F4000DBF800605F46D1F804C09E435FEA8C2C5A
:100F500000D51E433E60DEF800607746D1F804C03D
:100F60009E435FEA8C3C00D51E433E60084F083F1D
:100F70003E68D1F804C09E435FEACC3C00D51E43D6
:100F80003E60521C102AFFF431AFBDE8F88F00001C
:100F9000083C01404438024000300140000002405B
:100FA0000004024000080240000C02400010024011
:100FB0000069084000D001207047426921EA02031D
:100FC0000A4043EA0241816170470AB1816170477A
:100FD0000904FBE7014880687047000040000020DA
:100FE00070B5040011D021684CF6CC40086021682F
:100FF00045F255500860D4E9000141602168A068BD
:101000008860FFF7E7FF05460DE0012070BD00BFD7
:10101000FFF7E0FF401B312805D92068C068800732
:1010200001D0032070BD2068C0688007F0D121681E
:101030004AF6AA200860002070BD00684AF6AA217E
:101040000160002070470000024881680278114466
:1010500081607047400000200B4810B5016841F4E2
:1010600000710160016841F480610160016841F430
:1010700080710160032000F06FF80F2000F006F887
:1010800000F024F8002010BD003C024070B50D4D6A
:1010900004464FF47A712878B1FBF0F00A490968E8
:1010A000B1FBF0F000F0D3FD48B9102C07D20022BC
:1010B0002146501E00F030F800206C6070BD012009
:1010C00070BD0000400000204C0000200A4808B518
:1010D000016841F480410160006800F480400090A4
:1010E0000548001F016841F080510160006800F070
:1010F0008050009008BD000044380240002809DB01
:1011000000F01F02012191404009800000F1E02021
:10111000C0F8001170470000F0B40E4B1B680C467D
:10112000C3F30223C3F10705042D00D90425191DBB
:10113000072901D2002300E0DB1E012606FA05F193
:10114000491E214099409E40761E16403143F0BC16
:1011500001F015BA0CED00E0064900F0070208683E
:101160004FF6FF03184040EA0220034A104308608C
:10117000704700000CED00E00000FA052DE9F04793
:101180000E46050065D0DFF81481D8F80000F7B2EC
:1011900000F00700B04207D288F80070D8F80000CD
:1011A00000F00700B04254D128683D4C810712D5A9
:1011B000400703D5206840F4E050206028780007FD
:1011C00003D5206840F4604020602068A96820F0C2
:1011D000F000084320602878C0072DD030496868A7
:1011E0000839012812D0022813D0032811D0096829
:1011F000890700292DDA216821F0030101432160CC
:10120000FFF7E8FE814641F2883A0EE0096889035B
:10121000EFE709688901ECE7FFF7DCFEA0EB0901C5
:10122000514502D90320BDE8F0872068696800F0C5
:101230000C00B0EB810FEFD1D8F80010404601F060
:101240000701B14207D90770006800F00700B042FB
:1012500001D00120E7E72878400705D52068E96834
:1012600020F4E050084320602878000706D5206865
:10127000296920F4604040EAC100206000F018F8BD
:101280002168084AC1F30311515CC840064908604F
:1012900006480068FFF7FAFE0020C4E7003C024061
:1012A000083802403A2800084C0000204400002082
:1012B000154810B5006810F00C02144813D01449FA
:1012C000042A0FD0082A0ED10F4C241F226823684D
:1012D00002F03F025B0207D52068C0F38810A0FB34
:1012E000010106E0084610BD2168C1F38811A1FB89
:1012F00000010023FEF7C0FF2168C1F30141491C32
:101300004900B0FBF1F010BD083802400024F400A1
:1013100040787D012DE9F84F04006ED02078DFF889
:101320004C93C007A9F104054AD009F104000168F3
:10133000C1F38101012908D00068C0F381000228AF
:101340000AD1D9F80000400206D52868800337D5B5
:1013500060680028E1D033E06068B0F5803F10D0CD
:10136000B0F5A02F286810D020F4803028602868BD
:1013700020F4802028606068A8B1FFF72BFE0646A5
:101380000DE0286840F48030F4E740F480202860C5
:10139000F7E700BFFFF71EFE801B642873D828689C
:1013A0008003F7D50CE0FFF715FE064605E000BF09
:1013B000FFF710FE801B6428F0D828688003F7D45C
:1013C0002078DFF8AC8280074FF0000A3ED5A748AE
:1013D000001D016811F00C0F08D00068C0F38100F7
:1013E00002280BD1D9F80000400207D428688007F2
:1013F00016D5E068012800D112E033E1E068B8B109
:101400000120C8F80000FFF7E5FD064605E000BF33
:10141000FFF7E0FD801B0228C0D828688007F7D5B9
:101420002868216920F0F80040EAC10028600DE03A
:10143000C8F800A0FFF7CEFD064604E0FFF7CAFD9E
:10144000801B02281FD828688007F7D4207800075F
:1014500022D5864F87486169703771B101210160DB
:10146000FFF7B8FD064604E0FFF7B4FD801B022835
:1014700009D838688007F7D50EE0C0F800A0FFF75C
:10148000A9FD064605E082E0FFF7A4FD801B0228C7
:101490007DD838688007F7D42078400768D5DFF812
:1014A000CCB100270BF13C0BDBF80000C0000BD4E3
:1014B000DBF8001041F08051CBF80010DBF80000A1
:1014C000012700F0805000906B4E3068C00510D4AA
:1014D000306840F480703060FFF77CFD009005E0DC
:1014E000FFF778FD0099401A022850D83068C005EF
:1014F000F6D55E4EA0686C3601280FD005283068FE
:1015000010D020F001003060306820F0040030601E
:10151000A068B8B1FFF75EFD00900FE0306840F0C2
:101520000100F4E740F004003060F7E7FFF752FDF8
:101530000099411A41F28830814266D830688007AC
:10154000F4D50EE0FFF746FD009007E0FFF742FDFF
:101550000099411A41F28830814256D8306880079C
:10156000F4D42FB1DBF8001021F08051CBF800103B
:10157000A069C8B33D49091D0968C1F38101022969
:101580004AD00228504607D0C8F8600000E03CE08E
:10159000FFF720FD04463BE04746C8F86000FFF730
:1015A00019FD064605E000BFFFF714FD801B022869
:1015B0002BD828688001F7D4D4E907010843A16A31
:1015C0002E4A490802EB0141626A41EA821108434E
:1015D00094F82C1040EA0161C9F800100120386627
:1015E000FFF7F8FC044606E03EE000BFFFF7F2FC20
:1015F000001B022809D828688001F7D534E000BF15
:10160000FFF7E8FC001B022802D90320BDE8F88F91
:1016100028688001F4D427E00128F7D0D9F8000029
:10162000E26900F4800191421CD1226A00F03F017E
:10163000914217D147F6C071626A0140B1EB821F37
:1016400010D1A26A4FF0FF3300F4403103EB520295
:10165000B1EB024F06D194F82C1000F07060B0EBA3
:10166000016F01D00120D1E70020CFE7043802400C
:1016700000004742800E4742007000400000FFFF1C
:1016800090F85100704770B5040009D0606A0025D9
:1016900040B125616561A56294F8510040B10CE04C
:1016A000012070BD6068B0F5827FF4D0E561F2E79B
:1016B00084F85050204600F045F8022084F851008C
:1016C0002068016821F040010160A088218900F4B0
:1016D000827001F404410843A18901F400610843C8
:1016E000217C01F002010843217D01F00101084342
:1016F000218B01F400710843217F01F03801084378
:1017000094F8201001F080010843218D01F400516C
:10171000084321680860A069042101EA104094F898
:10172000241001F010010843216848602068C16955
:1017300021F40061C1616565012084F85100002039
:1017400070BD000010B586B0044614216846FEF74F
:101750003CFE13492068884220D1124800210268CB
:1017600042F480520260006800F4805005900D48F9
:101770001438026842F001020260006800F00100C3
:101780000590E02000900220CDE9010103200390A4
:101790000520049069460448FFF71AFB06B010BD07
:1017A0000030014044380240000002402DE9F84F6B
:1017B000044640680025984616460F464FF0040B35
:1017C000B0F5827F01D1A06888B194F8500001285B
:1017D00018D0012084F85000FFF7FCFB814694F8F4
:1017E00051004FF0000A01280ED0022582E084F853
:1017F00051B013460A462046CDF8008000F036F975
:10180000BDE8F88F0220FBE7002F72D0002E70D0C9
:1018100084F851B0C4F854A0A763A687E687C4F83B
:1018200030A0A4F834A0A4F836A0C4F840A0C4F8AE
:1018300044A0A068B0F5004F09D12068016821F0EC
:10184000400101602068016821F480410160206846
:101850000168490603D4016841F040010160E06875
:10186000D8B139E020688168C90709D0007BA16B35
:101870000870A06B401CA063E08F401EE0870CE066
:10188000FFF7A8FBA0EB0901414503D3B8F1FF3FE7
:1018900003D036E0B8F1000F33D0E08F0028E1D15B
:1018A0001DE020688168C90709D0C068A16B088065
:1018B000A06B801CA063E08F401EE0870CE0FFF768
:1018C00089FBA0EB0901414503D3B8F1FF3F03D0E9
:1018D00017E0B8F1000F14D0E08F0028E1D14A469C
:1018E0004146204600F03BFD08B120206065606D58
:1018F00000B10125012084F8510084F850A0284649
:101900007EE70325F6E72DE9F84F044690F85000EE
:1019100000271D461646894601280DD04FF0010BC1
:1019200084F850B0FFF756FB804694F85100BA4651
:10193000012804D0022793E00220BDE8F88FB9F116
:10194000000F73D0002E71D0032084F85100C4F82A
:1019500054A0C4F83090A686E686C4F838A0A4F84F
:101960003CA0A4F83EA0C4F844A0C4F840A0A068DD
:10197000B0F5004F09D12068016821F040010160F5
:101980002068016841F480410160206801684906CF
:1019900003D4016841F040010160E068B0F5006FD8
:1019A000606803D030B3012E24D041E008B1012E8D
:1019B0001CD1206B21680088C86006E0206881681F
:1019C000890709D5216B0988C160206B801C2063C1
:1019D000E08E401EE08609E0FFF7FCFAA0EB08006D
:1019E000A84202D3681C01D031E07DB3E08E00280C
:1019F000E4D120E0206B21680078087306E02068BD
:101A00008168890709D5216B09780173206B401C17
:101A10002063E08E401EE0860AE0FFF7DBFAA0EBD1
:101A20000800A84203D3681C02D010E017E06DB193
:101A3000E08E0028E3D142462946204600F0BEFC55
:101A400008B120206065A06818B106E0FFE7032711
:101A500006E02068C16880680090606D00B10127D1
:101A600084F851B084F850A0384666E72DE9F84F65
:101A7000044690F8500000270A9E1D4692468B4669
:101A80004FF0010901280ED0012084F85000FFF723
:101A9000A1FA804694F85100616801280CD0B1F594
:101AA000827F07D102E00220BDE8F88FA16809B962
:101AB000042801D00227C2E0BBF1000F27D0BAF101
:101AC000000F24D01DB394F85100042802D0052043
:101AD00084F8510000206065C4F838A0E587A58728
:101AE000C4F830B0E586A58620646064206801688B
:101AF000490603D4016841F040010160E068B0F597
:101B0000006F606805D0E8B3012D46D07FE0012763
:101B100095E008B1012D39D1206B21680088C8609B
:101B2000206B801C2063E08E401EE0862EE0206843
:101B3000816889070FD5E18E69B1B9F1010F0AD12A
:101B4000216B0988C160206B801C2063E08E401EE1
:101B5000E0864FF0000920688168C9070CD0E18F4A
:101B600051B1C068A16B0880A06B801CA063E08F9E
:101B7000401EE0874FF00109FFF72CFAA0EB0800A8
:101B8000B04200E009E001D3701C50D1E08E002883
:101B9000CDD1E08F0028CAD13FE0206B21680078CA
:101BA0000873206B401C2063E08E401EE0862EE010
:101BB0002068816889070FD5E18E69B1B9F1010FFD
:101BC0000AD1216B09780173206B401C2063E08EE1
:101BD000401EE0864FF0000920688168C9070CD0DC
:101BE000E18F51B1C068A16B0870A06B401CA0636D
:101BF000E08F401EE0874FF00109FFF7EBF9A0EB03
:101C00000800B04202D3701C01D010E07EB1E08E1B
:101C10000028CDD1E08F0028CAD142463146204667
:101C200000F0CCFB28B101272020606507E00327E6
:101C300005E0A06818B92068C1688068009001209C
:101C400084F85100002084F8500038462CE710B585
:101C5000401EB0F1807F01D3012010BD4FF0E02481
:101C600060610F21601700F08AFC0020A06107204E
:101C70002061002010BDFEE7F8B5044641F0800069
:101C80008DF8000017461E46A18800222068FFF745
:101C90009CF94FF4FA652B4601226946A069FFF7CB
:101CA00032FEA069FFF7ECFC0128FAD12B46324640
:101CB0003946A069FFF727FEA069FFF7E1FC01287C
:101CC000FAD1A18801222068FFF77FF9F8BD70B52D
:101CD0000C460546012100F09CF8024644B1012C57
:101CE0000BD0032C0FD0052C13D0062C17D01BE0E3
:101CF000002002F0F802E86116E0012002F0F8028C
:101D0000521CE86110E0032002F0F802D21CE861E6
:101D10000AE0052002F0F802521DE86104E0062006
:101D200002F0F802921DE8612846BDE870400121EA
:101D300000F0A3B970B504460021FFF7C8FF0A20E0
:101D4000FEF7B2FF0121204600F063F805460A20A5
:101D5000FEF7AAFF45F080020121204600F08DF930
:101D60006420FEF7A1FF2046216A00F0CBF894F82A
:101D70002A10204600F005F994F82B10204600F0B8
:101D8000E1F823220C21204600F077F9204600F0EC
:101D90001FF994F82410204600F0FDF8FF221F21BF
:101DA000204600F06AF994F8250094F82610000106
:101DB00000EB4100C2B21D21204600F05EF9208DEB
:101DC0002021020A204600F058F994F82820212109
:101DD000204600F052F94021204600F01AF840F069
:101DE0003F024021204600F048F901212046FFF73C
:101DF0006EFF0120E0610A20FEF756FF42212046D7
:101E000000F007F8122802D04FF4CA7070BDC82045
:101E100070BD0EB501F07F018DF8081001210A4652
:101E2000009101AB02A900F003F89DF804000EBD7B
:101E30002DE9F0470E461546044681889846DDF8A0
:101E4000209000680022FFF7C0F84FF4FA673B4685
:101E50002A463146A069FFF756FDA069FFF710FC3E
:101E60000128FAD13B464A464146A069FFF79EFC4D
:101E7000A069FFF705FC0128FAD1A1882068BDE818
:101E8000F0470122FFF7A1B82DE9F04100250E46E9
:101E9000074614462846294601E03154401CA0421A
:101EA000FBDB01213846FFF712FF12213846FFF70E
:101EB000B0FF40061FD5FF221221384600F0DDF8A2
:101EC00013213846FFF7A5FF054610213846FFF7D6
:101ED000A0FF02460D21384600F0CFF8AC4200D2F8
:101EE0002546002405E000213846FFF792FF3055D3
:101EF000641CAC42F7DB05213846FFF7E8FE2846B4
:101F0000BDE8F08170B50546C8044411C4F307422A
:101F10000621284600F0B1F80520FEF7C5FEC4F3FF
:101F200007220721284600F0A8F80520FEF7BCFE8E
:101F3000E2B20821284600F0A0F8BDE87040052074
:101F4000FEF7B2BE10B52D2901D22D2105E0F029F2
:101F500001D9F02106E0782904D805222D3991FB1A
:101F6000F2F103E00A221E31B1FBF2F1C9B22031D5
:101F7000CAB20B2100F081F8BDE810400A20FEF73C
:101F800093BE10B50A46092100F077F8BDE810406D
:101F90000A20FEF789BE70B50C4606460C2901DD05
:101FA0000C2402E0072C00DA07241E21FFF731FF82
:101FB00005460A20FEF778FE64F31F15EAB21E21DB
:101FC000304600F05AF8BDE870400A20FEF76CBEBB
:101FD00010B504461E21FFF71CFF40F007021E212A
:101FE000204600F04AF8BDE810400A20FEF75CBE2B
:101FF0000521FFF76CBE2DE9F0410F461C46164641
:1020000080460121C569FFF762FE0E214046FFF7B9
:1020100000FF02460D21404600F02FF832462221F3
:10202000404600F02AF833463A4600214046FFF782
:1020300023FE03214046FFF74AFE12214046FFF7E8
:10204000E8FE00070BD5FF221221404600F015F8EC
:1020500029464046FFF73BFE0120BDE8F081641EA3
:102060002404240C03D00120FEF71EFEE5E72946D8
:102070004046FFF72CFE0020EFE70EB541F080014F
:102080008DF8081001218DF804200A46009101AB5B
:1020900002A900F001F80EBD2DE9F0470E461546E5
:1020A000044681889846DDF8209000680022FEF7FB
:1020B0008CFF4FF4FA673B462A463146A069FFF78A
:1020C00022FCA069FFF7DCFA0128FAD13B464A4618
:1020D0004146A069FFF717FCA069FFF7D1FA012874
:1020E000FAD1A1882068BDE8F0470122FEF76DBF54
:1020F0007FB500242448009401940294214903945C
:10210000016001254FF480310561C0E901140476B6
:1021100080F820401D49C0E90A140426C661C46045
:1021200080F830404561FEF706FC08B1FEF7B4FACE
:102130000095CDE9015469461348FEF7B1FA08B19C
:10214000FEF7AAFA02200090019069460E48FEF7B9
:10215000A7FA08B1FEF7A0FA0320009001906946A3
:102160000948FEF79DFA08B1FEF796FA009669460F
:1021700005480196FEF794FA002801D0FEF78CFA84
:102180007FBD000000200140FC0000200100000F86
:10219000094808B5016841F4800101600068002227
:1021A00000F48000009011463820FEF7B5FFBDE82E
:1021B00008403820FEF7A2BF30380240F0B587B0A3
:1021C00014216846FEF701F942480024016841F0F5
:1021D00004010160016801F004010591016841F00A
:1021E00080010160016801F080010591016841F002
:1021F00001010160016801F001010591016841F0F0
:10220000020101600068344E00F002004FF40055F6
:102210000590002229463046FEF7D7FE2F4F0122B7
:102220004FF205013846FEF7D0FE00224FF48361DD
:102230003846FEF7CAFE00950125CDE901546946EE
:1022400030460394FEF7C4FD4FF21D400090CDE9E7
:102250000154694638460394FEF7BAFD0220009007
:102260004FF48810CDE9010469463846FEF7B0FD09
:102270004FF4E06000904FF44410CDE90105184C94
:1022800069462046FEF7A4FD4FF4184000904FF435
:102290000410CDE9010569462046FEF799FD0022AC
:1022A00011460720FEF738FF0720FEF727FF002220
:1022B00011461720FEF730FF1720FEF71FFF002200
:1022C00011462820FEF728FF2820FEF717FF07B049
:1022D000F0BD000030380240000802400004024017
:1022E00000000240094810B507490160042141601F
:1022F00040F6C3118160FEF773FE002803D0BDE8ED
:102300001040FEF7C9B910BD00300040A401002004
:10231000104810B50E4901604FF4827141600021F0
:102320008160C1604FF400720161C0E905121022A2
:10233000C0E90721416281620A21C162FFF7A3F966
:10234000002803D0BDE81040FEF7A6B910BD00007C
:1023500000300140B0010020FEE7FEE77047F8B50D
:10236000044640684FF48273984221D1A0684FF42C
:102370008065B0F5004F01D0A8420AD120680668F8
:1023800026F0400606606068984211D1A068A84215
:102390000ED000920B4600228021204600F03AF831
:1023A000002804D0606D40F0200060650320F8BD77
:1023B00000920B4600220121EFE7000038B50446E9
:1023C0001248134B0068B0FBF3F04FF47A73584394
:1023D00000906068B0F5827F0DD10B46009200221C
:1023E0008021204600F016F870B1606D40F02000AA
:1023F0006065032038BD009830B1401E0090206811
:102400008068C0430006F6D5002038BD4C0000208F
:1024100000366E012DE9F8431E4691468846044673
:10242000089DFEF7D7FD401B351AFEF7D3FD074682
:1024300025480068C0F3CB30684338E0701C37D0C3
:10244000FEF7C8FDC01BA84203D215B1009860B3C7
:102450002CE02068416821F0E00141606068B0F53F
:10246000827F0BD1A068B0F5004F02D0B0F5806F2D
:1024700004D12068016821F040010160A06AB0F534
:10248000005F09D12068016821F4005101602068D3
:10249000016841F400510160012084F851000020DE
:1024A00084F850000320BDE8F8830025401E00900A
:1024B0002068816838EA010004D000214945BDD177
:1024C0000020F0E70121F9E74C0000207047FEF7FB
:1024D000BBBD000030B593B030216846FDF775FFF5
:1024E00014210CA8FDF771FF1E480025016841F07A
:1024F00080510160006800F0805011901A48016816
:1025000041F4404101600068022400F44040119011
:10251000092000904FF4803001900120CDE905049E
:10252000800507900C2008906020CDE90904042064
:102530000B906846FEF7EEFE08B172B6FEE70CA9F6
:102540000F2081E831004FF48050CDE90F050321C1
:102550000CA8FEF713FE002801D072B6FEE713B0F8
:1025600030BD000040380240007000400248016861
:1025700041F470010160704788ED00E0FEE7090753
:10258000090E002804DB00F1E02080F800147047F9
:1025900000F00F0000F1E02080F8141D70470000EB
:1025A00070B50C4D00244FF4806601223146284658
:1025B000FEF70BFD6420FEF777FB0022314628462C
:1025C000FEF703FD6420FEF76FFB641C032CECDBBD
:1025D00070BD00000004024010B50A48FFF7AAFBD6
:1025E00001460948C82908D000220821FEF7EDFC61
:1025F000BDE810400348FFF7FBBC044A01211170FD
:102600000A46F2E7500000200004024000000020CB
:1026100000B58BB0684600F0DBF82C226946124802
:10262000FDF7A1FE10481149012202C0042320F841
:10263000082B40F8041C03804160022101810C49F1
:10264000C16040F2B11141610A2101760721417652
:102650008276FC2181776421C177082181830BB0C8
:102660005DF804EBFFF7B8BF500000200004024003
:10267000B0010020FEF7F0FCFFF72CFFFFF79EFDF6
:10268000FFF786FDFFF734FDFFF742FEFFF72AFE56
:102690004948FEF7A5FCFFF7BBFF00F0B5F8FFF7D0
:1026A0007FFF4FF480714548FEF782FC444CE07197
:1026B00008B100F0A9F8424DDFF808910026243552
:1026C0004FF4005A4FF0510830274FF4FA7B00BF07
:1026D000FEF780FCE168401AA16988420BD93648B0
:1026E000FEF7ABFCFFF778FF51463748FEF765FC75
:1026F000FEF770FCE060FEF76DFC2169411AE069AD
:10270000814230D9E07958BB607890B1FFF748FF3B
:1027100085F800806F70A07829493030A870207942
:102720005B463030E870042224312848FFF763FC10
:102730006670A07810B300224FF400414846FEF7BF
:1027400044FC2079E0B100224FF480414846FEF776
:102750003CFCA079B0B1002251464846FEF735FC5A
:10276000FEF738FC2061FEF735FC6169401A216AEA
:102770008842ADD9E079012806D018E00122DBE7D4
:102780000122E1E70122E7E7207A80B185F80080A5
:102790006F70E0780A493030A87060795B4630305D
:1027A000E870042224310948FFF725FC2672FEF761
:1027B00011FC60618CE70000A401002000000240D1
:1027C00000000020000402400008024050000020E9
:1027D00000B58BB040F2B111089107218DF824109B
:1027E0008DF8251001218DF82610FF218DF82A1073
:1027F00064218DF82B100821ADF828102C22694691
:10280000FDF7B1FD0BB000BD10B5064C0122D103A0
:102810002046FEF7DAFB20460122BDE81040910376
:10282000FEF7D3BB000402404FF04070E1EE100A07
:102830007047000610160006101600000000000089
:102840000000010203040607080900006C280008C4
:102850000000002050000000D4010008BC2800083F
:102860005000002018080000F001000800000000DF
:102870000000000000000000000000000000000058
:1028800000000000E8030000F4010000F401000073
:102890000000000000000000000000000000000038
:1028A0000000000000000000000000000100000027
:0C28B00010000000000000000024F400F4
:040000050800019955
:00000001FF
